{
  "contractName": "Faucet",
  "abi": [
    {
      "constant": true,
      "inputs": [],
      "name": "owner",
      "outputs": [
        {
          "name": "",
          "type": "address"
        }
      ],
      "payable": false,
      "stateMutability": "view",
      "type": "function",
      "signature": "0x8da5cb5b"
    },
    {
      "constant": true,
      "inputs": [],
      "name": "amountAllowed",
      "outputs": [
        {
          "name": "",
          "type": "uint256"
        }
      ],
      "payable": false,
      "stateMutability": "view",
      "type": "function",
      "signature": "0x9ad2cd14"
    },
    {
      "inputs": [],
      "payable": false,
      "stateMutability": "nonpayable",
      "type": "constructor",
      "signature": "constructor"
    },
    {
      "payable": true,
      "stateMutability": "payable",
      "type": "fallback"
    },
    {
      "anonymous": false,
      "inputs": [
        {
          "indexed": true,
          "name": "to",
          "type": "address"
        }
      ],
      "name": "Withdrawal",
      "type": "event",
      "signature": "0xe19ed71156e31b3c9e18ac7ad8d1b79f0a0feb3be18d23dae612e52040aada4b"
    },
    {
      "anonymous": false,
      "inputs": [
        {
          "indexed": true,
          "name": "from",
          "type": "address"
        },
        {
          "indexed": false,
          "name": "amount",
          "type": "uint256"
        }
      ],
      "name": "Deposit",
      "type": "event",
      "signature": "0xe1fffcc4923d04b559f4d29a8bfc6cda04eb5b0d3c460751c2402c5c5cc9109c"
    },
    {
      "constant": false,
      "inputs": [
        {
          "name": "newOwner",
          "type": "address"
        }
      ],
      "name": "setOwner",
      "outputs": [],
      "payable": false,
      "stateMutability": "nonpayable",
      "type": "function",
      "signature": "0x13af4035"
    },
    {
      "constant": false,
      "inputs": [
        {
          "name": "newAmountAllowed",
          "type": "uint256"
        }
      ],
      "name": "setAmountallowed",
      "outputs": [],
      "payable": false,
      "stateMutability": "nonpayable",
      "type": "function",
      "signature": "0xf3aa52a1"
    },
    {
      "constant": true,
      "inputs": [],
      "name": "showContractBalance",
      "outputs": [
        {
          "name": "balance",
          "type": "uint256"
        }
      ],
      "payable": false,
      "stateMutability": "view",
      "type": "function",
      "signature": "0x901c947f"
    },
    {
      "constant": false,
      "inputs": [],
      "name": "topup",
      "outputs": [],
      "payable": false,
      "stateMutability": "nonpayable",
      "type": "function",
      "signature": "0x69774c2d"
    },
    {
      "constant": false,
      "inputs": [],
      "name": "donateTofaucet",
      "outputs": [],
      "payable": true,
      "stateMutability": "payable",
      "type": "function",
      "signature": "0x605e73cd"
    },
    {
      "constant": false,
      "inputs": [],
      "name": "receive",
      "outputs": [],
      "payable": true,
      "stateMutability": "payable",
      "type": "function",
      "signature": "0xa3e76c0f"
    },
    {
      "constant": false,
      "inputs": [],
      "name": "requestTokens",
      "outputs": [],
      "payable": true,
      "stateMutability": "payable",
      "type": "function",
      "signature": "0x359cf2b7"
    }
  ],
  "bytecode": "0x60806040526706f05b59d3b2000060015534801561001c57600080fd5b50336000806101000a81548173ffffffffffffffffffffffffffffffffffffffff021916908373ffffffffffffffffffffffffffffffffffffffff1602179055506106458061006c6000396000f3fe608060405260043610610099576000357c0100000000000000000000000000000000000000000000000000000000900463ffffffff16806313af40351461009b578063359cf2b7146100ec578063605e73cd146100f657806369774c2d146101005780638da5cb5b14610117578063901c947f1461016e5780639ad2cd1414610199578063a3e76c0f146101c4578063f3aa52a1146101ce575b005b3480156100a757600080fd5b506100ea600480360360208110156100be57600080fd5b81019080803573ffffffffffffffffffffffffffffffffffffffff169060200190929190505050610209565b005b6100f4610336565b005b6100fe610437565b005b34801561010c57600080fd5b50610115610488565b005b34801561012357600080fd5b5061012c6104d9565b604051808273ffffffffffffffffffffffffffffffffffffffff1673ffffffffffffffffffffffffffffffffffffffff16815260200191505060405180910390f35b34801561017a57600080fd5b506101836104fe565b6040518082815260200191505060405180910390f35b3480156101a557600080fd5b506101ae61051d565b6040518082815260200191505060405180910390f35b6101cc610523565b005b3480156101da57600080fd5b50610207600480360360208110156101f157600080fd5b8101908080359060200190929190505050610525565b005b6000809054906101000a900473ffffffffffffffffffffffffffffffffffffffff1673ffffffffffffffffffffffffffffffffffffffff163373ffffffffffffffffffffffffffffffffffffffff161415156102f3576040517f08c379a00000000000000000000000000000000000000000000000000000000081526004018080602001828103825260228152602001807f4f6e6c79206f776e65722063616e2063616c6c20746869732066756e6374696f81526020017f6e2e00000000000000000000000000000000000000000000000000000000000081525060400191505060405180910390fd5b806000806101000a81548173ffffffffffffffffffffffffffffffffffffffff021916908373ffffffffffffffffffffffffffffffffffffffff16021790555050565b6001543073ffffffffffffffffffffffffffffffffffffffff16311115156103ec576040517f08c379a000000000000000000000000000000000000000000000000000000000815260040180806020018281038252602d8152602001807f4e6f7420656e6f7567682066756e647320696e20746865206661756365742e2081526020017f506c6561736520646f6e6174650000000000000000000000000000000000000081525060400191505060405180910390fd5b3373ffffffffffffffffffffffffffffffffffffffff166108fc6001549081150290604051600060405180830381858888f19350505050158015610434573d6000803e3d6000fd5b50565b3373ffffffffffffffffffffffffffffffffffffffff166108fc671bc16d674ec800009081150290604051600060405180830381858888f19350505050158015610485573d6000803e3d6000fd5b50565b3373ffffffffffffffffffffffffffffffffffffffff166108fc671bc16d674ec800009081150290604051600060405180830381858888f193505050501580156104d6573d6000803e3d6000fd5b50565b6000809054906101000a900473ffffffffffffffffffffffffffffffffffffffff1681565b60003073ffffffffffffffffffffffffffffffffffffffff1631905090565b60015481565b565b6000809054906101000a900473ffffffffffffffffffffffffffffffffffffffff1673ffffffffffffffffffffffffffffffffffffffff163373ffffffffffffffffffffffffffffffffffffffff1614151561060f576040517f08c379a00000000000000000000000000000000000000000000000000000000081526004018080602001828103825260228152602001807f4f6e6c79206f776e65722063616e2063616c6c20746869732066756e6374696f81526020017f6e2e00000000000000000000000000000000000000000000000000000000000081525060400191505060405180910390fd5b806001819055505056fea165627a7a72305820dada4608096536e52c913cbc6a1a4f39a1f0d89c81b2017e8e77460bf80a8ae90029",
  "source": "pragma solidity ^0.5.0;\r\n\r\ncontract Faucet {\r\n\t\r\n\r\n    //state variable to keep track of owner and amount of ETHER to dispense\r\n    address public owner;\r\n    uint public amountAllowed = 0.5 ether;\r\n\r\n    event Withdrawal(address indexed to);\r\n    event Deposit(address indexed from, uint amount);\r\n\r\n\r\n    //constructor to set the owner\r\n\t// constructor() payable {\r\n\t// \towner = msg.sender;\r\n\t// }\r\n\r\n    // CALLED WHEN SMART CONTRACT IS CREATED\r\n    // I GUESS THIS MEANS WHEN THE FILL FAUCET BUTTON IS CLICKED?\r\n    constructor() public {\r\n\t \towner = msg.sender;\r\n\t}\r\n\r\n    //function modifier\r\n    modifier onlyOwner {\r\n        require(msg.sender == owner, \"Only owner can call this function.\");\r\n        _; \r\n    }\r\n\r\n\r\n    //function to change the owner.  Only the owner of the contract can call this function\r\n    function setOwner(address newOwner) public onlyOwner {\r\n        owner = newOwner;\r\n    }\r\n\r\n\r\n    //function to set the amount allowable to be claimed. Only the owner can call this function\r\n    function setAmountallowed(uint newAmountAllowed) public onlyOwner {\r\n        amountAllowed = newAmountAllowed;\r\n    }\r\n\r\n    function showContractBalance() public view returns(uint balance)\r\n    {\r\n        balance = address(this).balance;\r\n    }\r\n\r\n\r\n    //function to donate funds to the faucet contract\r\n\t// function donateTofaucet(uint amount) public payable \r\n    // {\r\n    //     // emit Deposit(msg.sender, msg.value);\r\n    //     emit Deposit(msg.sender, amount);\r\n    // }\r\n    function () external payable {}\r\n\r\n    function topup() public {\r\n        msg.sender.transfer(2 ether);\r\n    }\r\n\r\n    function donateTofaucet() public payable {\r\n        msg.sender.transfer(2 ether);\r\n    }\r\n\r\n    function receive() external payable {}\r\n\r\n\r\n    //function to send tokens from faucet to an address\r\n    function requestTokens() public payable {\r\n\r\n        // CHECKS IF THIS CONTRACT HAS ENOUGH ETH \r\n        require(address(this).balance > amountAllowed, \"Not enough funds in the faucet. Please donate\");\r\n\r\n        //if the balance of this contract is greater then the requested amount send funds\r\n        msg.sender.transfer(amountAllowed);        \r\n    }\r\n}",
  "sourcePath": "C:/Users/Aleistor/OneDrive/Documents/App/Hashr-New/marketplace-master/src/contracts/Faucet.sol",
  "compiler": {
    "name": "solc",
    "version": "0.5.0+commit.1d4f565a.Emscripten.clang"
  },
  "schemaVersion": "3.0.2",
  "updatedAt": "2021-12-21T03:25:15.571Z",
  "devdoc": {
    "methods": {}
  },
  "userdoc": {
    "methods": {}
  }
}