{
  "contractName": "FSaucet",
  "abi": [
    {
      "constant": true,
      "inputs": [],
      "name": "owner",
      "outputs": [
        {
          "name": "",
          "type": "address"
        }
      ],
      "payable": false,
      "stateMutability": "view",
      "type": "function"
    },
    {
      "constant": true,
      "inputs": [],
      "name": "amountAllowed",
      "outputs": [
        {
          "name": "",
          "type": "uint256"
        }
      ],
      "payable": false,
      "stateMutability": "view",
      "type": "function"
    },
    {
      "inputs": [],
      "payable": false,
      "stateMutability": "nonpayable",
      "type": "constructor"
    },
    {
      "anonymous": false,
      "inputs": [
        {
          "indexed": true,
          "name": "to",
          "type": "address"
        }
      ],
      "name": "Withdrawal",
      "type": "event"
    },
    {
      "anonymous": false,
      "inputs": [
        {
          "indexed": true,
          "name": "from",
          "type": "address"
        },
        {
          "indexed": false,
          "name": "amount",
          "type": "uint256"
        }
      ],
      "name": "Deposit",
      "type": "event"
    },
    {
      "constant": false,
      "inputs": [
        {
          "name": "newOwner",
          "type": "address"
        }
      ],
      "name": "setOwner",
      "outputs": [],
      "payable": false,
      "stateMutability": "nonpayable",
      "type": "function"
    },
    {
      "constant": false,
      "inputs": [
        {
          "name": "newAmountAllowed",
          "type": "uint256"
        }
      ],
      "name": "setAmountallowed",
      "outputs": [],
      "payable": false,
      "stateMutability": "nonpayable",
      "type": "function"
    },
    {
      "constant": false,
      "inputs": [
        {
          "name": "amount",
          "type": "uint256"
        }
      ],
      "name": "donateTofaucet",
      "outputs": [],
      "payable": true,
      "stateMutability": "payable",
      "type": "function"
    },
    {
      "constant": false,
      "inputs": [
        {
          "name": "_requestor",
          "type": "address"
        }
      ],
      "name": "requestTokens",
      "outputs": [],
      "payable": true,
      "stateMutability": "payable",
      "type": "function"
    }
  ],
  "bytecode": "0x6080604052606460015534801561001557600080fd5b50336000806101000a81548173ffffffffffffffffffffffffffffffffffffffff021916908373ffffffffffffffffffffffffffffffffffffffff1602179055506105c8806100656000396000f3fe608060405260043610610078576000357c0100000000000000000000000000000000000000000000000000000000900463ffffffff16806313af40351461007d578063580f3904146100ce5780638da5cb5b1461011257806392a4feb7146101695780639ad2cd1414610197578063f3aa52a1146101c2575b600080fd5b34801561008957600080fd5b506100cc600480360360208110156100a057600080fd5b81019080803573ffffffffffffffffffffffffffffffffffffffff1690602001909291905050506101fd565b005b610110600480360360208110156100e457600080fd5b81019080803573ffffffffffffffffffffffffffffffffffffffff16906020019092919050505061032a565b005b34801561011e57600080fd5b5061012761042c565b604051808273ffffffffffffffffffffffffffffffffffffffff1673ffffffffffffffffffffffffffffffffffffffff16815260200191505060405180910390f35b6101956004803603602081101561017f57600080fd5b8101908080359060200190929190505050610451565b005b3480156101a357600080fd5b506101ac6104a2565b6040518082815260200191505060405180910390f35b3480156101ce57600080fd5b506101fb600480360360208110156101e557600080fd5b81019080803590602001909291905050506104a8565b005b6000809054906101000a900473ffffffffffffffffffffffffffffffffffffffff1673ffffffffffffffffffffffffffffffffffffffff163373ffffffffffffffffffffffffffffffffffffffff161415156102e7576040517f08c379a00000000000000000000000000000000000000000000000000000000081526004018080602001828103825260228152602001807f4f6e6c79206f776e65722063616e2063616c6c20746869732066756e6374696f81526020017f6e2e00000000000000000000000000000000000000000000000000000000000081525060400191505060405180910390fd5b806000806101000a81548173ffffffffffffffffffffffffffffffffffffffff021916908373ffffffffffffffffffffffffffffffffffffffff16021790555050565b6001543073ffffffffffffffffffffffffffffffffffffffff16311115156103e0576040517f08c379a000000000000000000000000000000000000000000000000000000000815260040180806020018281038252602d8152602001807f4e6f7420656e6f7567682066756e647320696e20746865206661756365742e2081526020017f506c6561736520646f6e6174650000000000000000000000000000000000000081525060400191505060405180910390fd5b8073ffffffffffffffffffffffffffffffffffffffff166108fc6001549081150290604051600060405180830381858888f19350505050158015610428573d6000803e3d6000fd5b5050565b6000809054906101000a900473ffffffffffffffffffffffffffffffffffffffff1681565b3373ffffffffffffffffffffffffffffffffffffffff167fe1fffcc4923d04b559f4d29a8bfc6cda04eb5b0d3c460751c2402c5c5cc9109c826040518082815260200191505060405180910390a250565b60015481565b6000809054906101000a900473ffffffffffffffffffffffffffffffffffffffff1673ffffffffffffffffffffffffffffffffffffffff163373ffffffffffffffffffffffffffffffffffffffff16141515610592576040517f08c379a00000000000000000000000000000000000000000000000000000000081526004018080602001828103825260228152602001807f4f6e6c79206f776e65722063616e2063616c6c20746869732066756e6374696f81526020017f6e2e00000000000000000000000000000000000000000000000000000000000081525060400191505060405180910390fd5b806001819055505056fea165627a7a72305820ecf4e02d68e6708ad869fccc55b71a38ad5cbc9e1d5b9f062e5834698ae9254e0029",
  "source": "pragma solidity ^0.5.0;\r\n\r\ncontract FSaucet {\r\n\t\r\n\r\n    //state variable to keep track of owner and amount of ETHER to dispense\r\n    address public owner;\r\n    uint public amountAllowed = 100;\r\n\r\n    event Withdrawal(address indexed to);\r\n    event Deposit(address indexed from, uint amount);\r\n\r\n\r\n    //constructor to set the owner\r\n\t// constructor() payable {\r\n\t// \towner = msg.sender;\r\n\t// }\r\n\r\n    // CALLED WHEN SMART CONTRACT IS CREATED\r\n    // I GUESS THIS MEANS WHEN THE FILL FAUCET BUTTON IS CLICKED?\r\n    constructor() public {\r\n\t \towner = msg.sender;\r\n\t}\r\n\r\n    //function modifier\r\n    modifier onlyOwner {\r\n        require(msg.sender == owner, \"Only owner can call this function.\");\r\n        _; \r\n    }\r\n\r\n\r\n    //function to change the owner.  Only the owner of the contract can call this function\r\n    function setOwner(address newOwner) public onlyOwner {\r\n        owner = newOwner;\r\n    }\r\n\r\n\r\n    //function to set the amount allowable to be claimed. Only the owner can call this function\r\n    function setAmountallowed(uint newAmountAllowed) public onlyOwner {\r\n        amountAllowed = newAmountAllowed;\r\n    }\r\n\r\n\r\n    //function to donate funds to the faucet contract\r\n\tfunction donateTofaucet(uint amount) public payable {\r\n        // emit Deposit(msg.sender, msg.value);\r\n        emit Deposit(msg.sender, amount);\r\n    }\r\n\r\n\r\n    //function to send tokens from faucet to an address\r\n    function requestTokens(address payable _requestor) public payable {\r\n\r\n        // CHECKS IF THIS CONTRACT HAS ENOUGH ETH \r\n        require(address(this).balance > amountAllowed, \"Not enough funds in the faucet. Please donate\");\r\n\r\n        //if the balance of this contract is greater then the requested amount send funds\r\n        _requestor.transfer(amountAllowed);        \r\n    }\r\n}",
  "sourcePath": "C:/Users/Aleistor/OneDrive/Documents/App/Hashr-New/marketplace-master/src/contracts/Faucet.sol",
  "compiler": {
    "name": "solc",
    "version": "0.5.0+commit.1d4f565a.Emscripten.clang"
  },
  "schemaVersion": "3.0.2",
  "updatedAt": "2021-12-14T02:38:16.860Z",
  "devdoc": {
    "methods": {}
  },
  "userdoc": {
    "methods": {}
  }
}